{
  "_format": "hh-sol-artifact-1",
  "contractName": "Wallet",
  "sourceName": "contracts/Wallet.sol",
  "abi": [
    {
      "inputs": [],
      "stateMutability": "nonpayable",
      "type": "constructor"
    },
    {
      "inputs": [],
      "name": "getContractBalance",
      "outputs": [
        {
          "internalType": "uint256",
          "name": "",
          "type": "uint256"
        }
      ],
      "stateMutability": "view",
      "type": "function"
    },
    {
      "inputs": [],
      "name": "getUserBalance",
      "outputs": [
        {
          "internalType": "uint256",
          "name": "",
          "type": "uint256"
        }
      ],
      "stateMutability": "view",
      "type": "function"
    },
    {
      "inputs": [
        {
          "internalType": "uint256",
          "name": "_amount",
          "type": "uint256"
        }
      ],
      "name": "withdraw",
      "outputs": [],
      "stateMutability": "nonpayable",
      "type": "function"
    },
    {
      "stateMutability": "payable",
      "type": "receive"
    }
  ],
  "bytecode": "0x608060405234801561001057600080fd5b50336000806101000a81548173ffffffffffffffffffffffffffffffffffffffff021916908373ffffffffffffffffffffffffffffffffffffffff1602179055506105ac806100606000396000f3fe6080604052600436106100385760003560e01c80632e1a7d4d146100995780636f9fb98a146100c2578063b7013dc1146100ed57610094565b366100945734600160003373ffffffffffffffffffffffffffffffffffffffff1673ffffffffffffffffffffffffffffffffffffffff168152602001908152602001600020600082825461008c9190610351565b925050819055005b600080fd5b3480156100a557600080fd5b506100c060048036038101906100bb91906103b6565b610118565b005b3480156100ce57600080fd5b506100d761023a565b6040516100e491906103f2565b60405180910390f35b3480156100f957600080fd5b506101026102d1565b60405161010f91906103f2565b60405180910390f35b80600160003373ffffffffffffffffffffffffffffffffffffffff1673ffffffffffffffffffffffffffffffffffffffff16815260200190815260200160002054101561019a576040517f08c379a000000000000000000000000000000000000000000000000000000000815260040161019190610490565b60405180910390fd5b80600160003373ffffffffffffffffffffffffffffffffffffffff1673ffffffffffffffffffffffffffffffffffffffff16815260200190815260200160002060008282546101e991906104b0565b925050819055503373ffffffffffffffffffffffffffffffffffffffff166108fc829081150290604051600060405180830381858888f19350505050158015610236573d6000803e3d6000fd5b5050565b60008060009054906101000a900473ffffffffffffffffffffffffffffffffffffffff1673ffffffffffffffffffffffffffffffffffffffff163373ffffffffffffffffffffffffffffffffffffffff16146102cb576040517f08c379a00000000000000000000000000000000000000000000000000000000081526004016102c290610556565b60405180910390fd5b47905090565b6000600160003373ffffffffffffffffffffffffffffffffffffffff1673ffffffffffffffffffffffffffffffffffffffff16815260200190815260200160002054905090565b6000819050919050565b7f4e487b7100000000000000000000000000000000000000000000000000000000600052601160045260246000fd5b600061035c82610318565b915061036783610318565b925082820190508082111561037f5761037e610322565b5b92915050565b600080fd5b61039381610318565b811461039e57600080fd5b50565b6000813590506103b08161038a565b92915050565b6000602082840312156103cc576103cb610385565b5b60006103da848285016103a1565b91505092915050565b6103ec81610318565b82525050565b600060208201905061040760008301846103e3565b92915050565b600082825260208201905092915050565b7f596f7520646f6e2774206861766520656e6f75676820637265646974206f6e2060008201527f74686520636f6e74726163742e00000000000000000000000000000000000000602082015250565b600061047a602d8361040d565b91506104858261041e565b604082019050919050565b600060208201905081810360008301526104a98161046d565b9050919050565b60006104bb82610318565b91506104c683610318565b92508282039050818111156104de576104dd610322565b5b92915050565b7f4f6e6c79206f776e65722063616e2063616c6c20746869732066756e6374696f60008201527f6e2e000000000000000000000000000000000000000000000000000000000000602082015250565b600061054060228361040d565b915061054b826104e4565b604082019050919050565b6000602082019050818103600083015261056f81610533565b905091905056fea2646970667358221220f1ff1d67f141c6d51cf8104771593239d038258d415c5e9bb79632b7fd115e2864736f6c63430008130033",
  "linkReferences": {},
  "deployedLinkReferences": {}
}